:100000000C942A000C9447000C9447000C94470071
:100010000C9447000C9447000C9447000C94470044
:100020000C9447000C9447000C9447000C94470034
:100030000C9447000C9447000C9447000C94470024
:100040000C9447000C9447000C9447000C94470014
:100050000C94470011241FBECFE5D8E0DEBFCDBF12
:1000600011E0A0E6B0E0EAE6F6E002C005900D92ED
:10007000A438B107D9F723E0A4E8B1E001C01D928C
:10008000A738B207E1F70E942F020C9433030C94B7
:10009000000084EA86BF06B607FEFDCF089583B947
:1000A00084E886BF06B607FEFDCF0895CF93C82F1C
:1000B0000E94490088E70E944F0080E00E944F00A4
:1000C0008C2F0E944F0084E986BFCF910895FF9244
:1000D0000F931F93CF93DF93F82E192F062F0E94B3
:1000E000490088E70E944F0080E40E944F00CF2D16
:1000F000D12F0C0F1D2F111D89910E944F00C01789
:10010000D107D1F784E986BFDF91CF911F910F917D
:10011000FF900895CF93C62F80550E9456008C2FD4
:100120008F700E9456008C2F82958F70805FCF91C8
:100130000C945600EF92FF920F931F93CF93DF938F
:100140007C018B01D42FC52F64E182E00E948A00DC
:1001500060E2C7010E9467006CE482E00E948A00AE
:1001600060E2C7010E94670064E183E00E948A00A8
:1001700060E2C8010E9467006CE483E00E948A008C
:1001800060E2C8010E94670064E184E00E948A0086
:1001900060E28D2F9C2F0E9467006CE484E00E9437
:1001A0008A0060E28D2F9C2FDF91CF911F910F91DC
:1001B000FF90EF900C9467002F923F924F925F92C6
:1001C0006F927F928F929F92AF92BF92CF92DF9267
:1001D000EF92FF920F931F93CF93DF93CDB7DEB7CC
:1001E0002A970FB6F894DEBF0FBECDBFE7E8F1E067
:1001F00020E032E0DF01A9011D9241505040E1F7BB
:1002000000916000109161002091620030916300C4
:1002100009831A832B833C838E010F5F1F4F1E01BE
:1002200055E0250E311C482E880F5508662E712C7E
:1002300088248394912CD801ED90FD908D01E40CDD
:10024000F51C50E1C52ED12CB12CF70120E030E097
:10025000D901AC59BE4FB11431F0B1E0BB122FC07F
:10026000D901AC5BBE4F4C9141112DC02F5F3F4F68
:1002700031962032310561F7B39458E0C50ED11C98
:1002800083E0B812E2CF02151305A9F62A960FB63D
:10029000F894DEBF0FBECDBFDF91CF911F910F91BC
:1002A000FF90EF90DF90CF90BF90AF909F908F9096
:1002B0007F906F905F904F903F902F900895D9015D
:1002C000AC5DBE4FD0CFE038F10580F6B6016619BF
:1002D000770918861F82842F90E09A8789878985FD
:1002E0009A850F8002C0969587950A94E2F780FF61
:1002F00023C0CB0108978097F8F4CB0143E0959594
:1003000087954A95E1F79FEF980FA0E89A9FA00183
:100310001124CA0189579E4F8E0F9F1FB62FB770A9
:10032000A40102C0440F551FBA95E2F75E834D83C6
:10033000DC01AC90A42AAC924F8158854F5F5F4F8F
:1003400058874F836F5F7F4F4830510541F68ECFFE
:100350000F931F93CF9307E811E0C0E0CF5F60E0F9
:100360008C2F0E948A0060E8C8010E946700005834
:100370001F4FC43099F7CF911F910F9108951F938C
:10038000CF93DF93C1E014E960E08C2F0E948A00D4
:100390000E94490088E70E944F0080E40E944F00BD
:1003A000D0E880E00E944F00DA95D9F716BFCF5F02
:1003B000C53051F7DF91CF911F9108951F93CF93CF
:1003C000DF93C82FD62F8091840181110CC0109229
:1003D00086011092850160E00E94DC000E94A80165
:1003E00081E08093840114E08091860190918501E1
:1003F0008C132AC0D9132FC0DF91CF911F9108957C
:100400008E5F80938601C8171CF4C09386018C2FE1
:100410009D1770F49E5F90938501953011F41093B1
:100420008501609185010E94DC000E94A801DCCF5B
:10043000D917B8F7913031F09250909385019D17FC
:1004400070F3EFCF90E0F9CF8C17D4F28250809305
:1004500086018C17D9CF8C2F9D17E0F2EBCF8AB392
:10046000887E8ABBD39A8BB3807E8BBB11B882E027
:1004700080B984E086BFD39AD498DB98DC981FBCFF
:1004800081E08EBD1DBC1CBC83ED90E30197F1F7AC
:1004900000C000008EEA0E94560080E20E945600D2
:1004A00080E00E9456008DE80E94560084E10E9480
:1004B00056008FEA0E945600809184018115A1F1B7
:1004C00060E080E00E94DE011092840100E010E014
:1004D00020E030E083E0C82ED12CF9B3E9B3E2701C
:1004E00049B344701F5F1E31B9F5DB9800C000C0EE
:1004F000DB9A94E09A95F1F7DB981DBC1CBCCC9B71
:100500001EC01DBC1CBC89B3182F107184FD38C0DF
:100510008CB59DB500E084379105F0F04D966AE307
:1005200070E00E941F0312C00E94BF0144E251E02C
:1005300064E471E084E691E00E949A00C5CF8CB536
:100540009DB580339547D8F26FEF7FEF01E06432BD
:10055000710508F000E010E0E115C9F042FBEE245F
:10056000E0F8F12CE601CE19DF092C173D0751F513
:1005700083EF91E00197F1F700C000009E01ADCF3D
:100580008CB59DB58033954708F4BDCFDDCF4111C3
:100590004AC0F0FF44C0C02FD0E00217130641F359
:1005A000C130D10531F5109284010E94BF0144ECA5
:1005B00050E064EE70E084E091E00E949A00C1E0B7
:1005C000D0E0D6CFC230D10569F4109284010E94E8
:1005D000BF0144E650E064E870E084EA90E00E94E5
:1005E0009A00C6CF64E08AEF0E94DE01C3E0D0E04B
:1005F000BFCF80918401811539F060E080E00E94D6
:10060000DE0110928401B4CF0E94BF0144E251E0A8
:1006100064E471E084E691E00E949A00F2CF213018
:10062000310509F6CCCF2430310521F064E086E0B5
:100630000E94DE0184E0C82F90E0D92F99CFAA1B39
:10064000BB1B51E107C0AA1FBB1FA617B70710F0BD
:10065000A61BB70B881F991F5A95A9F780959095EF
:0A066000BC01CD010895F894FFCF0E
:10066A0014004C0000030F0300000000000000000B
:10067A00000000000000000000000000000000036D
:10068A000F0300000000C0F03C0F03000000000050
:10069A00000000000000000000000000030F3CF012
:1006AA00C00000000000000000000080C060301898
:1006BA000C0606060606060C183060C0800000000C
:1006CA000000000000F00C0201010101010101011A
:1006DA0001010101010101010101010101010102FF
:1006EA000CF0000000FF0000000000000000000005
:1006FA003C3C3C3C3C3C3C3C000000000000000010
:10070A0000FF0000000F3040808080808080808061
:10071A00808080808080808080808080808080400F
:10072A00300F00000003070F1F3F7F7FFFFFFFFF0F
:10073A00FFFFFFFFFFFFFFFFFFFF7F7F3F1F0F0747
:10074A000300000000FFFFFFFFFFFFFFFFFFFFFFA7
:10075A00FFFFFFFFFFFFFFFFFFFFFFFFFFFFFFFF9F
:10076A00FFFF000000C0E0F0F8FCFEFEFFFFFFFF05
:10077A00FFFFFFFFFFFFFFFFFFFFFEFEFCF8F0E0B9
:04078A00C0000000AB
:00000001FF
